:020000040800F2
:10000000E80600207D030008850300088703000838
:10001000890300088B0300088D030008000000001E
:100020000000000000000000000000008F03000836
:1000300091030008000000009303000895030008E6
:100040009703000897030008970300089703000828
:100050009703000897030008970300089703000818
:100060009703000897030008970300089703000808
:1000700097030008970300089703000897030008F8
:10008000970300089703000897030008000000008A
:1000900000000000000000000000000097030008BE
:1000A0009703000895380008970300089703000895
:1000B000970300085F3900089703000897030008BA
:1000C00097030008970300089703000897030008A8
:1000D0009703000897030008DB3A0008970300081D
:1000E000970300089703000897030008000000002A
:1000F0000000000000000000000000000000000000
:1001000000000000000000000000000000000000EF
:10011000000000000000000097030008970300089B
:1001200000F002F800F03FF80AA090E8000C8244CA
:100130008344AAF10107DA4501D100F034F8AFF2A7
:10014000090EBAE80F0013F0010F18BFFB1A43F0B5
:1001500001031847203E0000403E0000103A24BF33
:1001600078C878C1FAD8520724BF30C830C144BF1C
:1001700004680C607047000000230024002500265E
:10018000103A28BF78C1FBD8520728BF30C148BFFA
:100190000B607047782903F04385002070471FB536
:1001A0001FBD10B510BD03F08FFE1146FFF7F7FF1E
:1001B00003F019F903F0ADFE03B4FFF7F2FF03BC3F
:1001C00002F01FFB0CB5002001900090634800680E
:1001D00040F480306149086000BF6048006800F466
:1001E000003000900198401C0190009818B90198C7
:1001F000B0F5A06FF1D15948006800F4003010B19B
:100200000120009001E0002000900098012831D1E9
:10021000524840685149486008464068486008466E
:10022000406848600846406820F47C1048600846F2
:10023000406840F4981048600846006840F08070BC
:10024000086000BF4548006800F000700028F9D041
:100250004248406820F00300404948600846406832
:1002600040F00200486000BF3C48406800F00C00CD
:100270000828F9D10CBD10B5FFF7A4FF10BD10B5CB
:100280003648006840F0010034490860084640687C
:100290003349084031494860084600683149084000
:1002A0002E4908600846006820F48020086008464F
:1002B000406820F4FE0048604FF41F008860002072
:1002C000C862FFF7D8FF4FF000602749086010BDF3
:1002D00030B50021002000220023204C646804F087
:1002E0000C0121B1042906D0082925D107E01F4CB3
:1002F0001F4D2C6024E01F4C1D4D2C6020E0174C3E
:10030000646804F47010154C646804F480320224AC
:1003100004EB904022B9174C4443154D2C600AE081
:100320000E4CE46A04F00F04631C124CB4FBF3F4AB
:1003300044430F4D2C6003E00C4C0D4D2C6000BF6E
:1003400000BF064C6468C4F303140B4D295D084CD0
:100350002468CC40064D2C6030BD000000100240E7
:100360000000FFF8FFFFF6FE08ED00E000127A0043
:100370000000002000093D000400002009488047DB
:1003800009480047FEE7FEE7FEE7FEE7FEE7FEE777
:10039000FEE7FEE7FEE7FEE704480549054A064B8F
:1003A000704700007F02000821010008E8000020DB
:1003B000E8060020E8020020E802002010B504460C
:1003C000CC48844208D10121042001F06CFC0021BA
:1003D000042001F068FC46E0C748844208D10121AE
:1003E000082001F060FC0021082001F05CFC3AE0EC
:1003F000C248844208D10121102001F054FC0021A0
:10040000102001F050FC2EE0BD48844208D10121AB
:10041000202001F048FC0021202001F044FC22E0D3
:10042000B848844208D10121402001F03CFC002161
:10043000402001F038FC16E0B348844208D1012185
:10044000802001F030FC0021802001F02CFC0AE02B
:10045000AE48844207D10121801501F024FC00211F
:10046000A01501F020FC10BD10B50121084601F0D7
:100470001AFC0021012001F016FC10BD2DE9F0410D
:10048000024600250026002000230024002791F8C2
:1004900003C00CF00F0591F803C00CF0100CBCF178
:1004A000000F03D091F802C04CEA050591F800C096
:1004B000BCF1000F31D0146800202BE04FF0010C8C
:1004C0000CFA00F3B1F800C00CEA03069E4220D1FA
:1004D00083004FF00F0C0CFA03F7BC4305FA03FC42
:1004E0004CEA040491F803C0BCF1280F06D14FF088
:1004F000010C0CFA00FCC2F814C00AE091F803C029
:10050000BCF1480F05D14FF0010C0CFA00FCC2F809
:1005100010C0401C0828D1D31460B1F800C0BCF151
:10052000FF0F34DD546800202EE000F1080C4FF07E
:10053000010808FA0CF3B1F800C00CEA03069E4269
:1005400021D183004FF00F0C0CFA03F7BC4305FADE
:1005500003FC4CEA040491F803C0BCF1280F05D158
:1005600000F1080C08FA0CF8C2F8148091F803C0E6
:10057000BCF1480F07D100F1080C4FF0010808FA50
:100580000CF8C2F81080401C0828CED35460BDE897
:10059000F0814FF6FF710180022181700421C1704A
:1005A00070470246002093680B400BB1012000E029
:1005B000002070470146886880B2704702460020DC
:1005C000D3680B400BB1012000E0002070470146CA
:1005D000C86880B2704701617047416170470AB1D5
:1005E000016100E041617047C16070474FF48032A3
:1005F0000A43826181618261826982697047024631
:100600000020434B18684FF68073184040EA0210F0
:1006100008433F4B186070473E49C8617047F0B5CA
:100620000A46002300240021002500F00046B6F110
:10063000004F02D1364EF16901E0354E7168C0F3CA
:10064000034583B200F44016B6F5401F08D121F0EF
:1006500070612F4E766826F070662D4F7E6012E036
:1006600000F48016B6F5801F06D1032606FA05F4BD
:10067000A14341F0706106E0460D360103FA06F62B
:10068000B14341F0706122B1460D360103FA06F61E
:10069000314300F00046B6F1004F02D11C4EF1612B
:1006A00001E01B4E7160F0BD30B500228B071C0FBE
:1006B0000F2303FA04F2164B08338C1053F824303E
:1006C0009343134C08348D1044F8253023468C1086
:1006D00053F824308C07240F00FA04F423430C4C05
:1006E00008348D1044F8253030BD0A49DC310860EB
:1006F0007047000000080140000C0140001001405C
:100700000014014000180140001C0140002001407D
:1007100000000140000020420E49086070470D496A
:10072000486070470B49886070474AF6AA2009491B
:10073000086070474CF6CC40064908607047014697
:100740000020044AD2680A400AB1012000E00020DB
:10075000704700000030004010B50446FE48844257
:1007600008D10121C01401F09EFA0021E01401F02B
:100770009AFAC4E0B4F1804F08D10121084601F093
:100780009FFA0021012001F09BFAB8E0F34884426F
:1007900008D10121022001F093FA0021022001F08A
:1007A0008FFAACE0EE48844208D10121042001F028
:1007B00087FA0021042001F083FAA0E0E94884428E
:1007C00008D10121082001F07BFA0021082001F066
:1007D00077FA94E0E448844208D10121102001F026
:1007E0006FFA0021102001F06BFA88E0DF488442A4
:1007F00008D10121202001F063FA0021202001F01E
:100800005FFA7CE0DA48844208D10121401401F00B
:100810004AFA0021601401F046FA70E0D54884429B
:1008200009D10121C80401F03EFA00214FF4002053
:1008300001F039FA63E0D048844209D1012108056A
:1008400001F031FA00214FF4801001F02CFA56E04B
:10085000CA48844209D10121480501F024FA002147
:100860004FF4001001F01FFA49E0C548844208D156
:100870000121402001F024FA0021402001F020FA5B
:100880003DE0C048844208D10121802001F018FADF
:100890000021802001F014FA31E0BB48844208D1E5
:1008A0000121801501F00CFA0021A01501F008FAD1
:1008B00025E0B648844209D10121080401F0F3F98A
:1008C00000214FF4803001F0EEF918E0B048844286
:1008D00009D10121480401F0E6F900214FF400306C
:1008E00001F0E1F90BE0AB48844208D10121880412
:1008F00001F0D9F900214FF4802001F0D4F910BDA6
:1009000000220288944B98420ED0994B98420BD00B
:10091000B0F1804F08D0914B984205D0904B98424F
:1009200002D0904B984204D14FF68F731A404B88F7
:100930001A438D4B984207D08C4B984204D04FF607
:10094000FF431A40CB881A4302808B8883850B882B
:100950000385814B98420BD0854B984208D08B4B36
:10096000984205D08A4B984202D08A4B984201D1D6
:100970000B7A038601238382704770B5002400221E
:100980000023058C4FF6FE7635400584028C838863
:10099000048B4FF68F752C40B51E2C400D882C43D0
:1009A000751E2A400D892A434D882A436A4DA84264
:1009B0000BD06F4DA84208D0744DA84205D0744D9D
:1009C000A84202D0734DA84213D14FF6F7752A40C2
:1009D0004D892A434FF6FB752A408D882A434FF6EE
:1009E000FF652B404FF6FF552B408D892B43CD895A
:1009F0002B4383800483CD888586028470BD70B5C7
:100A0000002400220023058C4FF6EF763540058444
:100A1000028C8388048B48F6FF752C404FF6FF4507
:100A20002C400D884FF6FF7606EA05252C434FF63D
:100A3000DF752A400D8906EA05152A434D8806EA26
:100A400005152A43444DA84202D0494DA8421DD164
:100A50004FF67F752A404D894FF6FF7606EA051559
:100A60002A434FF6BF752A408D8806EA05152A43AA
:100A70004FF6FF352B404FF2FF752B408D8906EA6C
:100A800085052B43CD8906EA85052B4383800483A6
:100A9000CD880587028470BD70B500240022002334
:100AA000058C4FF6FF6635400584028C8388848B65
:100AB0004FF68F752C404FF6FC752C400D882C435B
:100AC0004FF6FF552A400D894FF6FF7606EA0525B9
:100AD0002A434D8806EA05252A431F4DA84202D025
:100AE000234DA8421DD14FF2FF752A404D894FF684
:100AF000FF7606EA05252A434FF6FF352A408D8802
:100B000006EA05252A434EF6FF752B404DF6FF7584
:100B10002B408D8906EA05152B43CD8906EA05157C
:100B20002B4383808483CD888587028470BD70B514
:100B3000002200230024058C4EF6FF763540058404
:100B4000038C8488828B48F6FF752A404FF6FF4558
:100B50002A400D8820E00000002C014000040040E5
:100B600000080040000C004000100040001400404D
:100B700000340140004C014000500140005401404D
:100B800000180040001C00400020004000400140D0
:100B900000440140004801404FF6FF7606EA052573
:100BA0002A434DF6FF752B400D8906EA05352B4388
:100BB0004D8806EA05352B43FA4DA84202D0FA4D7E
:100BC000A84208D14BF6FF752C408D894FF6FF7671
:100BD00006EA85152C4384808283CD88A0F8405096
:100BE000038470BD828B4FF2FF331A408283828B65
:100BF0004FF6FF7303EA01231A4382837047F0B56F
:100C00000C461546002200210026078C4EF6FF7C7C
:100C100007EA0C070784828B018C4FF6FF7707EAFF
:100C2000043640F6FF473A404FF6FF7707EA0527BC
:100C30003A434FF6FF7707EA03373A43D94FB842B2
:100C40000ED0D94FB8420BD0B0F1804F08D0D74F5B
:100C5000B84205D0D64FB84202D0D64FB84206D1DE
:100C60004DF6FF77394046F48057394305E047F6A3
:100C7000FF57394044F48057394382830184F0BDE3
:100C8000828B4FF6F3731A408283828B0A438283EE
:100C90007047F0B50C461546002200210026078C4F
:100CA0004FF6FF6C07EA0C070784828B018C4FF626
:100CB000FF7707EA04264FF60C773A404FF6FF77A6
:100CC00007EA03172F433A43B64FB8420ED0B64F48
:100CD000B8420BD0B0F1804F08D0B44FB84205D025
:100CE000B34FB84202D0B34FB84206D14FF6FF57C8
:100CF000394046F48077394305E04FF2FF573940D9
:100D000044F48077394382830184F0BD028B4FF233
:100D1000FF331A400283028B4FF6FF7303EA01236D
:100D20001A4302837047F0B50C4615460022002195
:100D30000026078C4FF6EF7C07EA0C070784028B2E
:100D4000018C4FF6FF7707EA041640F6FF473A405A
:100D50004FF6FF7707EA03373A434FF6FF7707EA84
:100D600005273A438F4FB8420ED08F4FB8420BD071
:100D7000B0F1804F08D08D4FB84205D08C4FB842AB
:100D800002D08C4FB84206D14FF6DF77394046F09B
:100D90001007394305E04FF65F77394044F01007FC
:100DA000394302830184F0BD028B4FF6F3731A407E
:100DB0000283028B0A4302837047F0B50C46154646
:100DC00000220021068C4FF6FE773E400684028BFF
:100DD000018C4FF60C7632407E1C06EA03162E4339
:100DE0003243704EB0420ED06F4EB0420BD0B0F1D5
:100DF000804F08D06D4EB04205D06D4EB04202D04B
:100E00006C4EB04206D14FF6FD76314044F00106FB
:100E1000314305E04FF6F576314044F001063143A9
:100E200002830184F0BD70B505460C465D488542DD
:100E30000ED05D4885420BD0B5F1804F08D05B489D
:100E4000854205D05A48854202D05A48854200D191
:100E500000E000BF208850B92389A2886188284615
:100E6000FFF7ABFFE1882846FFF79EFF25E02088CB
:100E700004280AD12389A28861882846FFF753FFF6
:100E8000E1882846FFF742FF17E0208808280AD1AA
:100E90002389A28861882846FFF7FBFEE18828465F
:100EA000FFF7EEFE09E02389A28861882846FFF754
:100EB000A6FEE1882846FFF795FE70BD2DE9F041BA
:100EC00005460C4600260127608808B9022600E086
:100ED0000026A088012801D1022700E001272088F0
:100EE000A0B92389A28861882846FFF766FFE188B8
:100EF0002846FFF759FF23893A4631462846FFF72F
:100F000012FFE1882846FFF701FF13E02389A2883A
:100F100061882846FFF707FFE1882846FFF7F6FEBD
:100F200023893A4631462846FFF747FFE18828469D
:100F3000FFF73AFFBDE8F0810A884B881A438B8897
:100F40001A43CB881A430B891A434B891A438B895E
:100F50001A43A0F8442070474FF6FF7181800021AA
:100F60000180C18041800172704700210180418071
:100F70008180C180018141818181C18170470021CF
:100F800001804180012181800021C1800181704761
:100F90000021018041808180C18001814181818166
:100FA00070470000002C0140003401400004004064
:100FB00000080040000C004021B1028842F001020C
:100FC000028004E002884FF6FE731A4002807047E8
:100FD00031B1B0F8442042F40042A0F8442005E0CA
:100FE000B0F84420C2F30E02A0F8442070471AB1B2
:100FF00083890B43838102E083898B43838170471C
:101000008182704741EA0203A0F8483070471AB164
:1010100083890B43838102E083898B4383817047FB
:1010200001894FF6F8721140018170470A4600218C
:1010300001894FF68F73194011430181704730B514
:1010400004460D4629462046FFF7F0FF208940F070
:101050000700208130BD2DE9F04104460D461646BB
:101060001F46602D06D13B46012231462046FFF740
:101070005AFE05E03B46012231462046FFF79DFE21
:1010800029462046FFF7D2FF208940F00700208143
:10109000BDE8F08130B50C4600210189C9B24FF698
:1010A000FF7505EA0325154325432943018130BD1A
:1010B0002DE9F04105460E46174698460024434662
:1010C0003A4631462846FFF7E5FF2C894FF6F8707F
:1010D000044044F007044FF68F70044044F070045D
:1010E0002C81BDE8F081F0B504460D4616461F463A
:1010F0003B46324629462046FFF7CCFF208940F484
:1011000080402081F0BD0185828270470A4600211F
:1011100001884FF68F731940114301807047F0B575
:101120000C4615461E460021002200230189028B31
:10113000038C4FF6F877394021434FF6FC473A408D
:1011400040F201173A434FF6DD773B404FF6FF7709
:1011500007EA06172F433B43018102830384F0BD56
:101160000A460021018B4FF68F731940114301830A
:1011700070470A460021018B48F6FF7319404FF66D
:10118000FF7303EA02231943018370470A460021D3
:10119000818B4FF68F7319401143818370470A4644
:1011A0000021818B48F6FF7319404FF6FF7303EA65
:1011B000022319438183704721B1028842F08002E3
:1011C000028004E002884FF67F731A400280704765
:1011D00021B1828842F00402828004E082884FF6C6
:1011E000FB731A408280704721B1828842F0080266
:1011F000828004E082884FF6F7731A40828070473D
:1012000021B1828842F00102828004E082884FF698
:10121000FE731A40828070470A460021018B4FF608
:10122000F77319401143018370470A460021018B6F
:101230004FF2FF7319404FF6FF7303EA022319437D
:10124000018370470A460021818B4FF6F7731940DE
:101250001143818370470A460021818B4FF2FF734F
:1012600019404FF6FF7303EA022319438183704745
:101270000A460021018B4FF6FB731940114301838D
:1012800070470A460021018B4FF6FF3319404FF695
:10129000FF7303EA02231943018370470A460021C2
:1012A000818B4FF6FB7319401143818370470A46C7
:1012B0000021818B4FF6FF3319404FF6FF7303EA8D
:1012C00002231943818370470A460021018B4FF6A0
:1012D0007F7319401143018370470A460021018B37
:1012E000C1F30E014FF6FF7303EA02231943018392
:1012F00070470A460021818B4FF67F7319401143D6
:10130000818370470A460021818BC1F30E014FF69D
:10131000FF7303EA02231943818370470A460021C1
:10132000018C4FF6FD7319401143018470470A4642
:101330000021018C4FF6F773194011430184704767
:101340000A460021018C4FF6DF7319404FF6FF73F8
:1013500003EA02131943018470470A460021018CF5
:101360004FF67F7319404FF6FF7303EA02131943D8
:10137000018470470A460021018C4FF6FF53194043
:101380004FF6FF7303EA02231943018470470A46AC
:101390000021018C4FF2FF7319404FF6FF7303EAEF
:1013A00002231943018470470A460021018C4DF63F
:1013B000FF7319404FF6FF7303EA023319430184A8
:1013C000704730B5002301248C40A3B2048C9C43A9
:1013D0000484048C02FA01F5ADB22C43048430BDC0
:1013E00030B5002304248C40A3B2048C9C430484B5
:1013F000048C02FA01F5ADB22C43048430BD70B503
:101400000346002000241846183001258D40ACB258
:101410001D8CA5431D8409B1082909D100EB610089
:10142000056825F0700505600568154305600EE048
:101430000D1FC5F34E052844056825F4E0450560F9
:1014400005684FF6FF7606EA02263543056070BD53
:1014500021B1028842F00202028004E002884FF6C5
:10146000FD731A400280704721B1028842F00402E5
:10147000028004E002884FF6FB731A400280704736
:1014800021B1828842F08002828004E082884FF697
:101490007F731A408280704702884FF6F7731A40B4
:1014A000028002880A430280704782884FF68F7359
:1014B0001A40828082880A438280704702894FF6F0
:1014C000F8731A40028102890A4302817047028937
:1014D0004FF67F731A40028102890A4302817047E6
:1014E0008184704781857047818670470187704786
:1014F00081877047A0F84010704702884FF6FF437D
:101500001A40028002880A43028070470146888E92
:1015100070470146088F70470146888F7047014623
:10152000B1F8400070470146888C70470146088D2D
:10153000704702460020138A0B400BB1012000E0E7
:1015400000207047CA430282704730B5024600202F
:1015500000230024158A05EA0103958905EA0104A0
:1015600013B10CB1012000E0002030BDCA4302825B
:101570007047000010B50446FB48844209D10121A0
:10158000880300F090FB00214FF4804000F08BFBBB
:1015900032E0F648844209D10121480400F090FB72
:1015A00000214FF4003000F08BFB25E0F04884422E
:1015B00009D10121880400F083FB00214FF4802031
:1015C00000F07EFB18E0EB48844209D10121C804F9
:1015D00000F076FB00214FF4002000F071FB0BE0DF
:1015E000E548844208D10121080500F069FB00218B
:1015F0004FF4801000F064FB10BD2DE9F04786B079
:1016000005460E460024A24600BFA1460027B08929
:1016100000B100BF2F462C8A4CF6FF700440F088C2
:1016200004432C82AC894EF6F3100440B088318913
:101630000843718908430443AC81AC8A4FF6FF40EC
:101640000440B0890443AC8201A800F0A6FAC64861
:10165000874202D1DDF810A001E0DDF80CA0A889D6
:1016600000F4004040B10AEBCA0000EB0A103168F8
:101670004900B0FBF1F807E00AEBCA0000EB0A10E2
:1016800031688900B0FBF1F86420B8FBF0F0040188
:101690002009642101FB1089A88900F4004040B1B1
:1016A000322000EBC900B0FBF1F000F0070004436A
:1016B00008E0322000EB09106421B0FBF1F000F0EB
:1016C0000F0004432C8106B0BDE8F0874FF416519B
:1016D000016000218180C18001810C2141810021B4
:1016E0008181704710B502460020108A4FF2FF0337
:1016F00018400B884C8823438C882343CC88234391
:101700001843108210BD0021018041808180C1807A
:10171000704721B1828942F40052828104E08289BB
:101720004DF6FF731A4082817047F0B503460024DE
:1017300000260025002040F66A17B94200D100BFFC
:101740001846C1F3421401F01F06012707FA06F5F7
:10175000012C01D10C3004E0022C01D1103000E04A
:1017600014301AB107682F43076002E00768AF43DF
:101770000760F0BD1AB1838A0B43838202E0838A3B
:101780008B4383827047028A4FF6F0731A400282BD
:10179000028A0A430282704782894FF2FF731A401D
:1017A000828182890A438281704721B1828942F015
:1017B0000202828104E082894FF6FD731A40828121
:1017C0007047028A4FF6DF731A400282028A0A4388
:1017D0000282704721B1028A42F48042028204E010
:1017E000028A4BF6FF731A4002827047C1F3080267
:1017F0008280704701468888C0F30800704781895D
:1018000041F0010181817047028BD2B20283028BC9
:1018100042EA012202837047028B02F47F42028374
:10182000028B0A430283704721B1828A42F0200270
:10183000828204E0828A4FF6DF731A408282704708
:1018400021B1828A42F01002828204E0828A4FF63D
:10185000EF731A408282704721B1828A42F00802F7
:10186000828204E0828A4FF6F7731A4082827047C0
:1018700021B1828942F40042828103E08289C2F36D
:101880000E028281704721B1828A42F40062828214
:1018900004E0828A4FF2FF731A4082827047828A84
:1018A0004FF6FB731A408282828A0A438282704713
:1018B00021B1828A42F00202828204E0828A4FF6DB
:1018C000FD731A408282704702460020B1F5007F06
:1018D00000D100BF13880B400BB1012000E00020B5
:1018E000704701F40072B2F5007F00D100BFCA4317
:1018F0000280704770B502460024002300250020B6
:1019000040F66A16B14200D100BFC1F3421501F0A2
:101910001F03012606FA03F3012D02D196893340F5
:1019200006E0022D02D1168A334001E0968A334048
:101930000C12012606FA04F41688344013B10CB1D7
:10194000012000E0002070BD10B50022002340F609
:101950006A14A14200D100BF0A1201249440A3B22C
:10196000DC43048010BD000000380140004400400A
:1019700000480040004C004000500040E64800682D
:1019800040F00100E449086008464068E349084027
:10199000E149486008460068E1490840DE490860BE
:1019A0000846006820F4802008600846406820F45B
:1019B000FE0048604FF41F0088600020C862704736
:1019C000D549096821F48031D34A1160114609686C
:1019D00021F480211160B0F5803F03D0B0F5802F55
:1019E0000ED106E0CC49096841F48031CA4A116041
:1019F00007E0C949096841F4A021C74A116000E025
:101A000000BF00BF704710B5014600220023002030
:101A10004A11012A02D1C04C236806E0022A02D1F1
:101A2000BD4C236A01E0BC4C636A01F01F02012433
:101A300094401C400CB1012000E0002010BD38B5DE
:101A4000002000900024002500BF3120FFF7DBFFBD
:101A500005460098401C00900098B0F5A06F01D09A
:101A6000002DF2D03120FFF7CEFF08B1012400E0B5
:101A70000024204638BD01460020A74A106820F007
:101A8000F80040EAC10010607047A649086070473E
:101A900002460020A04B586820F4741042EA01036B
:101AA00018439D4B586070479E4908667047024630
:101AB0000020994BD86A9C4B184042EA0103184316
:101AC000954BD862704701460020934A506820F039
:101AD00003000843506070478F48406800F00C00D6
:101AE0007047014600208C4A506820F0F0000843FF
:101AF0005060704701460020874A506820F4E0603B
:101B000008435060704701460020834A506820F423
:101B1000605040EAC1005060704729B17E4A527A55
:101B200002437D4B5A7204E07B4A527A82437A4BDD
:101B30005A7270477B49D8310860704701460020CF
:101B4000754A506820F440400843506070470021B7
:101B5000714A20321170704A82F82010012802D098
:101B600004280AD104E001216B4A2032117005E0FB
:101B70000521694A2032117000E000BF00BF7047A4
:101B80006A49086070476449096A0143624A116200
:101B90007047664944390860704770B500210023DA
:101BA0000024002200255C4E766806F00C0121B16D
:101BB000042905D0082921D105E05D4E066020E00A
:101BC0005C4E06601DE0544E766806F47013524E6B
:101BD000766806F48034022606EB93431CB9554E12
:101BE0005E43066009E04C4EF66A06F00F06751C6F
:101BF000504EB6FBF5F65E43066002E04C4E0660C2
:101C000000BF00BF444E766806F0F00109094A4E55
:101C1000725C0668D64046603F4E766806F4E06126
:101C2000090A454E725C4668D64086603A4E766830
:101C300006F46051C90A404E725C4668D640C660E0
:101C4000354E766806F44041890B3C4E725CC6689E
:101C5000B6FBF2F6066170BD29B12F4A5269024304
:101C60002D4B5A6104E02C4A526982432A4B5A6137
:101C7000704729B1284A92690243274B9A6104E0D0
:101C8000254A92698243244B9A61704729B1224ABE
:101C9000D2690243204BDA6104E01F4AD2698243D1
:101CA0001D4BDA61704729B11B4AD26802431A4BB7
:101CB000DA6004E0184AD2688243174BDA60704752
:101CC00029B1154A12690243134B1A6104E0124A02
:101CD00012698243104B1A617047144940390860F9
:101CE00070471049C86470470B49C87170470A486B
:101CF000406A40F080700849486270470146002001
:101D0000054A92680A400AB1012000E000207047AD
:101D10000149887270470000001002400000FFF87F
:101D2000FFFFF6FE00004242F0FFFEFF8004424249
:101D300000127A0000093D00140000202400002059
:101D400001460020FE4A106800F038000843106089
:101D50007047FB49096821F00801F94A11601146F2
:101D60000968014311607047F549096821F01001C5
:101D7000F34A116011460968014311607047F14848
:101D8000EF494860F04848607047EE48EC494860C9
:101D9000ED4848607047EA48006940F08000E84933
:101DA00008617047E648006940F08000E449086136
:101DB00070470420E249C96801F0010109B101201E
:101DC0000EE0DF49C96801F0040109B1022007E013
:101DD000DB49C96801F0100109B1032000E00420CB
:101DE000704700B502460423FFF7E3FF034603E014
:101DF000FFF7DFFF0346521E012B01D1002AF7D166
:101E000002B90523184600BD30B5044604254FF439
:101E10003020FFF7E6FF0546042D17D1C8480069BA
:101E200040F00200C649086108464461006940F07C
:101E3000400008614FF43020FFF7D3FF0546C0484B
:101E4000006941F6FD710840BD490861284630BD72
:101E500010B504244FF43020FFF7C3FF0446042CD0
:101E600016D1B748006940F00400B549086108463A
:101E7000006940F0400008614FF43020FFF7B1FFE7
:101E80000446AF48006941F6FB710840AC4908615F
:101E9000204610BD00B502460423FFF78AFF034623
:101EA00003E0FFF786FF0346521E012B01D1002AF3
:101EB000F7D102B90523184600BD10B504244FF42C
:101EC0003020FFF7E7FF0446042C16D19C48006938
:101ED00040F004009A4908610846006940F040005B
:101EE00008614FF43020FFF7D5FF0446944800699D
:101EF00041F6FB71084092490861204610BD002060
:101F00008F49C96901F0020109B1012000E00020F8
:101F1000704730B5A5250424FFF7F1FF00B1002577
:101F20004FF43020FFF75DFF0446042C3AD185487A
:101F300083498860844888600846006940F0200032
:101F400008610846006940F0400008614FF4302005
:101F5000FFF747FF0446042C1BD17948006941F67E
:101F6000DF710840764908610846006940F01000BA
:101F7000086176480580E002FFF733FF0446052C30
:101F800010D06F48006941F6EF7108406C49086154
:101F900008E0052C06D06A48006941F6EF71084058
:101FA00067490861204630BD78B506460C460425D1
:101FB00000200090E802FFF714FF0546042D24D10D
:101FC0005F48006940F001005D4908613480E80223
:101FD000FFF707FF0546042D10D1B01C0090200C20
:101FE00000990880E802FFF7FCFE054654480069A6
:101FF00041F6FE7108405249086106E05048006908
:1020000041F6FE7108404E490861284678BD70B51A
:1020100004460D460426F002FFF7E3FE0646042EB2
:1020200011D14748006940F0010045490861258009
:10203000F002FFF7D6FE06464148006941F6FE7100
:1020400008403F490861304670BD70B505460E46F0
:102050000424E002FFF7C5FE0446042C17D13948DA
:1020600037498860384888600846006940F01000A9
:1020700008612E80E002FFF7B4FE0446052C06D06E
:102080002F48006941F6EF7108402D49086120464C
:1020900070BD2DE9F04304464FF6FF763746B04653
:1020A000B1460425E443E6B2C4F30727C4F3074866
:1020B0004FEA1469E802FFF794FE0546042D49D162
:1020C00020481F498860204888600846006940F021
:1020D00010000861FF2E06D01C4808300680E80278
:1020E000FFF77FFE0546042D08D1FF2F06D01748C5
:1020F0000A300780E802FFF774FE0546042D0AD176
:10210000B8F1FF0F07D011480C30A0F80080E802AA
:10211000FFF767FE0546042D0AD1B9F1FF0F07D07E
:102120000A480E30A0F80090E802FFF75AFE054674
:10213000052D0FD00248006941F6EF71084007E015
:102140000020024023016745AB89EFCD00F8FF1F57
:10215000664908612846BDE8F08330B50546042489
:102160004FF43020FFF73DFE0446042C41D1604877
:102170005E4988605F4888600846006940F020003A
:1021800008610846006940F0400008614FF43020C3
:10219000FFF727FE0446042C22D15448006941F67B
:1021A000DF710840514908610846006940F010009D
:1021B00008611DB100205049088002E0A5204E4969
:1021C00008804FF43020FFF70CFE0446052C10D099
:1021D0004648006941F6EF7108404449086108E04B
:1021E000052C06D04148006941F6DF7108403F499F
:1021F0000861204630BDF0B505460E46174604245A
:102200003B483A4988603B488860E002FFF7E9FDB7
:102210000446042C19D13548006940F010003349B8
:10222000086147F0F800304328433349891C08808F
:10223000E002FFF7D6FD0446052C06D02B480069C6
:1022400041F6EF710840294908612046F0BD274852
:10225000C069800870472548006A704700202349FC
:10226000096801F0200109B1012000E00020704759
:1022700029B11E4A126902431C4B1A6104E01B4A31
:1022800012698243194B1A617047014600200129E7
:1022900008D1164AD26902F001020AB1012008E011
:1022A000002006E0114AD2680A400AB1012000E08D
:1022B000002070470D49C860704704200B49C96869
:1022C00001F0010109B101200EE00849C96801F0DF
:1022D000040109B1022007E00449C96801F01001B6
:1022E00009B1032000E004207047000000200240F4
:1022F00023016745AB89EFCD00F8FF1F10B50446F9
:10230000BE48844208D101218014FFF7CCFC002193
:10231000A014FFF7C8FC16E0B948844208D1012197
:102320000014FFF7CDFC00212014FFF7C9FC0AE0E0
:10233000B448844207D10121C013FFF7C1FC00213A
:10234000E013FFF7BDFC10BD10B50022028802F4B7
:1023500041520B884C8823438C882343CC882343E9
:102360000C8923434C8923438C892343CC89234301
:102370001A430280838B4FF2FF74234083830B8ABE
:10238000038210BD2DE9F04F85B005460C464FF095
:10239000000902274FF000084FF0010B0026B2465B
:1023A000A88B4FF240010840A88302202884B5F88A
:1023B0001C90A068022801D100BF38E0A08810B9A5
:1023C0004FF0010B01E04FF0020B8D48854200D128
:1023D00000E000BF6846FFF7E0FBDDF800A0E08802
:1023E000B0F5007F0AD14FEA1A2000EB80004000D0
:1023F000A168B0FBF1F0401D86B20BE04FEA4B1034
:10240000BAFBF0F000EB80004000A168B0FBF1F0F7
:10241000401D86B20A20B6FBF0F606F00108A6EBD6
:102420000800C0F34F074FF6FF7000EA0828022F9C
:1024300001DBFF2F02DD02274FF00008E08840EAB1
:10244000080038432884A088A1890843618808438C
:102450002188084340F4006040EA0909A5F81C906F
:1024600005B0BDE8F08F0021018041808180C180EE
:10247000018141818181C181072101827047002151
:10248000018041808180C1800221816000218181A1
:10249000704721B1028842F04002028004E00288C5
:1024A0004FF6BF731A400280704721B1828B42F40D
:1024B0008062828304E0828B4FF6FF331A4082836E
:1024C000704730B5002400230C110125A540ABB2A4
:1024D0001AB185881D43858002E085889D438580EB
:1024E00030BD1AB183880B43838002E083888B431D
:1024F00083807047818170470146888970474FF615
:10250000FF62914204D0028842F48072028004E0AB
:1025100002884FF6FF631A400280704721B182881B
:1025200042F00402828004E082884FF6FB731A4076
:102530008280704702884FF2FF731A40028002883F
:102540000A4302807047018841F48051018070473E
:1025500021B1028842F40052028004E002884DF664
:10256000FF731A400280704702460020012901D003
:10257000108B00E0908A70470146088A7047B1F5D9
:10258000804F04D1028842F48042028004E0028835
:102590004BF6FF731A4002807047024600201389F1
:1025A0000B400BB1012000E000207047CA430281BC
:1025B0007047F0B50246002000240023002501F0FA
:1025C0000F070126BE40B4B20B1101269E40B3B2E4
:1025D000968806EA03051689264016B10DB101203A
:1025E00000E00020F0BD10B5002201F00F0401232F
:1025F000A3409AB2D343038110BD000000300140D4
:1026000000380040003C004029B1504A1288024383
:102610004E4B1A8004E04D4A128882434B4B1A807D
:1026200070474A48001D008840F010004749091DC6
:10263000088070474548001D00884FF6EF7108403C
:102640004249091D08807047002140481C3001881C
:10265000001F008841EA0040704700B50246FFF7BE
:10266000E0FF100C394918310880091D0A80FFF776
:10267000E1FF00BD00B50246FFF7D3FFC2F3034000
:10268000324908310880091D0A80FFF7D3FF00BDD9
:1026900000B50246FFF7C5FF100C2C492031088019
:1026A000091D0A80FFF7C6FF00BD00202749103131
:1026B00009880907080B2549143109880843704720
:1026C00000BF2248001D008800F020000028F8D03C
:1026D00070471E48001D00884FF6F77108401B49DF
:1026E000091D088000BF1948001D008800F008007F
:1026F0000028F8D0704701460020144A121D1288A5
:102700000A400AB1012000E0002070470F49091D6E
:10271000098881430D4A121D11807047014600202F
:102720000A4A121D12880A40D0B2084A12880A408A
:1027300012B108B1012000E0002070470349091DD3
:1027400009888143014A121D11807047002800400A
:1027500010B5002807DA0A07140EFE4A00F00F032E
:102760001B1FD45403E00A07130EFB4A135410BD79
:10277000024681EA022081B200230BE001F400400E
:1027800020B141F2210080EA410000E0480081B21E
:10279000581CC3B2082BF1DB08467047F0B504465D
:1027A0000D464FF6FF76002705E014F8010B314681
:1027B000FFF7DEFF06463846791CCFB2A842F4DBAD
:1027C0003046F0BD70B5044641F28835A1B2E34809
:1027D000FFF70CF800E000BF681E051EFBD170BDBE
:1027E00070B504460D462046FFF7ECFF70BD01466C
:1027F0004FF0FF30704710B504462046FFF7E2FF68
:1028000010BD00BFFEE7014608784FF4616300FB8E
:1028100003F24878C0EB001002EB80028878104485
:10282000704710B54FF46162B0FBF2F21823B2FBAF
:10283000F3F403FB14220A704FF46162B0FBF2F36D
:1028400002FB13023C23B2FBF3F24A704FF46162C5
:10285000B0FBF2F302FB13023C23B2FBF3F403FBE5
:1028600014228A7010BDBE49088000E000BFBC4938
:1028700009880029FAD170472DE9F04106ACF0CC67
:10288000DFF8E0C21CF800C0DFF8DC8288F800C086
:10289000DFF8D0C21CF801C088F801C0DFF8C4C25C
:1028A0001CF802C088F802C0DFF8B8C21CF803C0E8
:1028B00088F803C034B1C4469CF800C04CF0400C0A
:1028C00088F800C04DB1DFF8A0C29CF801C04CF000
:1028D000400CDFF8948288F801C04EB1DFF888C25E
:1028E0009CF802C04CF0400CDFF87C8288F802C0F3
:1028F0004FB1DFF874C29CF803C04CF0400CDFF815
:10290000688288F803C0BDE8F08110B500249748BC
:10291000007808B3964897490978445C9548007850
:10292000401CC0B293490870202801D100200870D3
:10293000262000F01F02012191408F4A430942F8EE
:10294000231000BF89480078401E8849087026205F
:1029500001F0EDF8204610BDFF20FCE71FB5002078
:102960008649087004218648FDF735FE0520FFF7EB
:102970007AFF40218348FDF730FE1420FFF773FFF4
:1029800040218048FDF727FE002000900190029032
:102990000A231A46194603901846FFF76DFF4FF4B5
:1029A000FA70FFF760FF00200090019002900B2367
:1029B0001A46194603901846FFF75EFF4FF4FA7067
:1029C000FFF751FF00200090019002900A231A4661
:1029D000194603901846FFF74FFF4FF4FA70FFF7C0
:1029E00042FF00200090019002900B231A461946E6
:1029F00003901846FFF740FF4FF4FA70FFF733FFDC
:102A000000200090019002900A231A461946039074
:102A10001846FFF731FF4FF4FA70FFF724FF00204C
:102A20000090019002900B231A4619460390184615
:102A3000FFF722FF4FF4FA70FFF715FF52A001F0E5
:102A4000A7F800200090019002900A231A46194628
:102A500003901846FFF710FF4FF4FA70FFF703FFDB
:102A600000200090019002900B231A461946039013
:102A70001846FFF701FF4FF4FA70FFF7F4FE45A088
:102A800001F086F800200090019002900A231A4677
:102A9000194603901846FFF7EFFE4FF4FA70FFF760
:102AA000E2FE00200090019002900B231A46194686
:102AB00003901846FFF7E0FE4FF4FA70FFF7D3FEDD
:102AC00001202E49087004212D48FDF786FD0520C0
:102AD000FFF7C9FE40212B48FDF77FFD1420FFF7CB
:102AE000C2FE40212748FDF776FD32202F490870AD
:102AF0001FBD2DE9F04F87B00024002600250027D8
:102B000000200490FFF7A0FD804605A9FFF789FE8D
:102B10000F269DF815000A2190FBF1F201FB12002F
:102B200000F0FF089DF8150090FBF1F000F0FF09A0
:102B30009DF8140090FBF1F201FB120000F0FF0A77
:102B40009DF8140090FBF1F000F0FF0B0020012233
:102B50002EE0000018ED00E000E400E0004400403A
:102B60003E000020480000205400002033000020D8
:102B70005C0000203200002080E100E030000020F6
:102B8000000C01400008014041542B4F52474C0DAE
:102B90000A00000041542B4E414D453D53544D33E6
:102BA000325F434C4F434B0D0A00000046000020AB
:102BB000CDE90002029043464A46514603905846EA
:102BC000FFF75AFE6FE2701EC6B2002D7ED19DF84F
:102BD00015000A2190FBF1F201FB120000F0FF0842
:102BE0009DF8150090FBF1F000F0FF099DF814002E
:102BF00090FBF1F201FB120000F0FF0A9DF81400B7
:102C000090FBF1F000F0FF0B00200122CDE9000263
:102C1000029043464A46514603905846FFF72CFE21
:102C2000002402E00120FFF71EFE8021FE48FDF790
:102C3000B8FC78B10821FC48FDF7B3FC50B1202165
:102C4000F948FDF7AEFC28B1601C80B20446B0F52F
:102C5000967FE7DB9DF815000A2190FBF1F201FB5E
:102C6000120000F0FF089DF8150090FBF1F000F055
:102C7000FF0900200122CDE90002029043464A46A6
:102C80000B2103900846FFF7F7FD002402E0012026
:102C9000FFF7E9FD8021E448FDF783FC78B10821C6
:102CA000E148FDF77EFC50B12021DF48FDF779FCBB
:102CB00028B1601C80B20446B0F5967FE7DB802126
:102CC000D948FDF76EFCE0BB0A2000E088E0FFF782
:102CD000CAFD3BE001270F269DF81400401CC0B23E
:102CE0008DF81400172802DD00208DF814009DF8DF
:102CF00015000A2190FBF1F201FB120000F0FF0821
:102D00009DF8150090FBF1F000F0FF099DF814000C
:102D100090FBF1F201FB120000F0FF0A9DF8140095
:102D200090FBF1F000F0FF0B00200122CDE9000242
:102D3000029043464A46514603905846FFF79CFD91
:102D400000E009E04FF49670FFF78DFD8021B64852
:102D5000FDF727FC0028BDD00821B348FDF721FC72
:102D6000F0BB0A20FFF77FFD39E001270F269DF811
:102D70001400401EC0B28DF81400172802DD172081
:102D80008DF814009DF815000A2190FBF1F201FB6B
:102D9000120000F0FF089DF8150090FBF1F000F024
:102DA000FF099DF8140090FBF1F201FB120000F006
:102DB000FF0A9DF8140090FBF1F000F0FF0B0020DB
:102DC0000122CDE90002029043464A465146039053
:102DD0005846FFF751FD4FF49670FFF744FD00E0B1
:102DE00005E008219048FDF7DCFB0028BDD0012D4F
:102DF0007ED19DF815000A2190FBF1F201FB120033
:102E000000F0FF089DF8150090FBF1F000F0FF09BD
:102E10009DF8140090FBF1F201FB120000F0FF0A94
:102E20009DF8140090FBF1F000F0FF0B0020012250
:102E3000CDE90002029043464A4651460390584667
:102E4000FFF71AFD002402E00120FFF70CFD8021AE
:102E50007548FDF7A6FB78B108217348FDF7A1FB83
:102E600050B120217048FDF79CFB28B1601C80B256
:102E70000446B0F5967FE7DB9DF814000A2190FB2D
:102E8000F1F201FB120000F0FF089DF8140090FB26
:102E9000F1F000F0FF0900200122CDE900020290CC
:102EA0000B231A46414603904846FFF7E5FC0024F1
:102EB00002E00120FFF7D7FC80215B48FDF771FBA2
:102EC00078B108215848FDF76CFB50B120215648D5
:102ED000FDF767FB28B1601C80B20446B0F5967F11
:102EE000E7DB80215048FDF75CFBE8BB0A2000E0EF
:102EF00088E0FFF7B8FC3CE0012004900F269DF825
:102F00001500401CC0B28DF815003B2802DD0020E2
:102F10008DF815009DF815000A2190FBF1F201FBD8
:102F2000120000F0FF089DF8150090FBF1F000F092
:102F3000FF099DF8140090FBF1F201FB120000F074
:102F4000FF0A9DF8140090FBF1F000F0FF0B002049
:102F50000122CDE90002029043464A4651460390C1
:102F60005846FFF789FC00E009E04FF49670FFF740
:102F70007AFC80212C48FDF714FB0028BCD00821E6
:102F80002948FDF70EFBE8BB0A20FFF76CFC3CE08C
:102F9000012004900F269DF81500401EC0B28DF848
:102FA00015003B2802DD3B208DF815009DF815002B
:102FB0000A2190FBF1F201FB120000F0FF089DF8DE
:102FC000150090FBF1F000F0FF099DF8140090FB54
:102FD000F1F201FB120000F0FF0A9DF8140090FBD3
:102FE000F1F000F0FF0B00200122CDE90002029079
:102FF00043464A46514603905846FFF73DFC4FF47E
:10300000967000E007E0FFF72EFC08210648FDF768
:10301000C8FA0028BCD020210348FDF7C2FAE8BB5B
:103020000A20FFF720FC01E0000C01402021FC48B1
:10303000FDF7B7FA90BB012D15D10026049878B1A1
:10304000FFF702FB804606A9FFF7EBFB9DF8150092
:103050008DF8190006A8FFF7D6FB8046FFF7FDFAAA
:103060003220F0490870ADB90F2601257FB1FFF776
:10307000EBFA804606A9FFF7D4FB9DF814008DF803
:10308000180006A8FFF7BFFB8046FFF7E6FA3220DC
:10309000E449087000BF2021E14800E003E0FDF7AB
:1030A00080FA0028F7D0002E7FF48DAD07B0BDE880
:1030B000F08FDD48C06940F0C050DB49C861DB4893
:1030C000006840F48070D9490860D748006A00F46D
:1030D0000040B0F5004F3DD0D348006A40F4803046
:1030E000D14908620846006A20F480300862084628
:1030F000006A40F401400862CD48008840F01000AA
:10310000CB49088047F6FF70C94908310880C84894
:10311000008820F01000C6490880C348006A40F0CB
:103120000100C149086200BFBF48006A00F0010009
:103130000028F9D0BE4800884FF6F7710840BC4916
:10314000088000BFBA48008800F008000828F9D1BC
:10315000012070470020FCE710B58AB0FEF70EFC96
:103160004FF48030FEF72CFCFEF769FC0446012C7E
:1031700023D11020FEF7F8FD0220FEF7E1FD00202C
:10318000FEF7AFFC0020FEF7BEFC0020FEF7B2FC0D
:1031900021050811FEF77CFC0120FEF785FC00BF2D
:1031A0003920FEF730FC0028FAD00220FEF78BFC15
:1031B00000BFFEF791FC0828FBD101210846FEF76D
:1031C00058FD01211C20FEF754FD5020ADF82400CD
:1031D00002208DF8260010208DF8270009A99548B7
:1031E000FDF74CF9A020ADF8240003208DF826004F
:1031F00018208DF8270009A98E48FDF73FF908200F
:10320000ADF8240002208DF8260004208DF8270058
:1032100009A98848FDF732F90420ADF824000220FE
:103220008DF8260018208DF8270009A98148FDF7A0
:1032300025F901218048FDF7F2F940F60410ADF8B8
:10324000240002208DF8260010208DF8270009A9FF
:103250007348FDF713F9FB20ADF8240002208DF828
:10326000260048208DF8270009A96D48FDF706F9CA
:1032700001214804FEF70AFD4FF41640009000209B
:10328000ADF80400ADF80600ADF808000C20ADF86C
:103290000A000020ADF80C0069466848FEF7ADF959
:1032A00001216648FEF735FA012240F225516348B4
:1032B000FEF73BFA262000F03AFC01212620FFF71A
:1032C00047FA0121C802FEF7D4FC002242F6E06171
:1032D0005B48FDF718FF01215948FEF703F901216A
:1032E0005748FDF769FF5648FDF79AFE00215448FC
:1032F000FDF70CFF012211465148FDF778FE012130
:103300004F48FDF759FE192000F011FC0221192049
:10331000FFF71EFA01210220FEF7B8FC00224FF44D
:10332000C8714848FDF7EFFE01214648FEF7DAF87C
:1033300001214448FDF740FF4248FDF771FE00219E
:103340004048FDF7E3FE012211463E48FDF74FFEDF
:1033500001213C48FDF730FE1D2000F0E8FB002174
:103360001D20FFF7F5F901210803FEF782FC4FF459
:103370004040ADF810004FF48270ADF8120000200C
:10338000ADF81400ADF81600ADF818004FF4007059
:10339000ADF81A000020ADF81C00ADF81E0004A91D
:1033A0002948FEF7D1FF01212748FFF772F845F2BF
:1033B0005550FDF7B1F90220FDF7B1F940F6C41000
:1033C000FDF7B0F90020FDF7A7F9FDF7B3F90121EA
:1033D000C806FEF75BFC01210807FEF757FCFFF764
:1033E00068FE0AB010BD86B0FFF7B6FE32200D4968
:1033F000087001201549087004210948FDF7EDF80F
:103400000520FFF730FA40210A48FDF7E6F81420BE
:10341000FFF729FA40210748FDF7DDF839E20000FF
:10342000000C0140460000200010024000700040E7
:103430000428004000080140000230000044004021
:10344000002C01400004004000300140300000200A
:103450002021FE48FDF7A5F8002867D1FC48007838
:1034600000287FD100BF2021F848FDF79AF818B94D
:10347000F84800780028F6D02021F448FDF791F8AC
:1034800030B9F4480078012802D13220F24908709E
:1034900000BF2021ED48FDF784F818B9ED48007809
:1034A0000128F6D02021E948FDF77BF860B9E9480A
:1034B0000078022808D13220E7490870C820FFF7B9
:1034C000D2F93220E449087000BF2021DF48FDF71F
:1034D00068F818B9DF4800780228F6D02021DB48C8
:1034E000FDF75FF890B9DB48007803280ED1322051
:1034F000D9490870C820FFF7B6F93220D6490870BC
:10350000C820FFF7B0F93220D349087000BF20214E
:10351000CE48FDF746F80028F9D0CE4800780128BB
:1035200005D10020CB490870FFF7E3FA1AE0C9483B
:103530000078022803D10020C649087012E0C5486F
:103540000078032805D10020C2490870FFF706FA69
:1035500008E03220C04908700120BD4908700020F1
:10356000BC4908702021B948FDF71BF880B9B8485C
:10357000007801280CD13220B74908700020B449E6
:10358000087000BF2021B148FDF70BF80028F9D0E2
:103590008021AE48FDF705F8A8B90A20FFF763F9C6
:1035A0000BE0AE480078FF2804DAAC480078401CF5
:1035B000AA4908700A20FFF756F98021A348FCF7B2
:1035C000F0FF0028EDD00821A048FCF7EAFFA8B9D9
:1035D0000A20FFF748F90BE0A0480078002804DD36
:1035E0009E480078401E9D4908700A20FFF73BF96D
:1035F00008219648FCF7D5FF0028EDD098480078C0
:1036000000287DD0FFF781F9542879D19620FFF763
:103610002AF900219348FEF77CF8002092490870AF
:1036200009E000219148904A127881548E48007830
:10363000401C8D4908708C4800780B28F1DB002075
:10364000894908700AE0FFF760F98849864A1278CC
:10365000885485480078401C834908708048007869
:1036600018B1814800780B28EDDD06217F48FFF76F
:1036700095F87F49086008467EA102687F4800F0FF
:1036800093FA7A4880797D49097888426DD17748E4
:10369000C0797A494978884267D17448007A774975
:1036A0008978884261D17148407A7449C9788842E2
:1036B0005BD10020724908700DE06C4870490978B0
:1036C000405C303869496E4A127888546C480078FA
:1036D000401C6B4908706A48007863490978884241
:1036E000EBDB624840786149097801EB810100EB2E
:1036F0004100C0B28DF814005C48C0785B4900E01E
:1037000037E0897801EB810100EB4100C0B28DF810
:103710001500564840795549097901EB810100EBC4
:103720004100C0B28DF816009DF8140017281CDC6B
:103730009DF815003B2818DC9DF816003B2814DC8A
:1037400005A8FFF760F80446FEF787FF0020009009
:10375000019002900A231A46194603901846FFF773
:103760008BF84FF49670FFF77EF801213D48FDF786
:10377000D0FFFEF769FF044605A9FFF752F8344869
:10378000007840BB9DF814000A2825DB9DF8150041
:103790000A2190FBF1F201FB1200C4B29DF8150062
:1037A00090FBF1F0C5B29DF8140090FBF1F201FB23
:1037B0001200C6B29DF8140090FBF1F0C7B20020D1
:1037C0000122CDE90002029023462A4631460390A9
:1037D0003846FFF751F81FE09DF815000A2190FBCD
:1037E000F1F201FB1200C4B29DF8150090FBF1F05C
:1037F000C5B29DF8140090FBF1F201FB1200C6B2B5
:1038000000200122CDE90002029023462A463146DB
:1038100003900B20FFF730F80D480078012835D1D0
:103820009DF816000A2190FBF1F201FB1200C4B2D0
:103830009DF8160090FBF1F0C5B200200122CDE901
:103840000002029023462A460B211BE0000C014097
:1038500045000020440000204600002047000020D2
:1038600033000020004400403C0000207C00002089
:1038700038000020253034580000000034000020BB
:103880003D00002003900846FEF7F6FF0A20FEF7F1
:10389000EAFFDDE510B50121AA48FDF756FE002834
:1038A0005CD00121A748FDF761FEFCF73EFFA6486A
:1038B000008820B1A4480088401EA3490880A3487E
:1038C0000078B0B1A1480078401EA04908704FF4BC
:1038D00080719F48FCF765FE28B14FF480719C48C9
:1038E000FCF77BFE0AE04FF480719948FCF773FE09
:1038F00004E04FF480719648FCF76FFE2021944855
:10390000FCF74FFEA0B993480088401C80B2914953
:103910000880B0F57A7F0ED1002008808E480078AC
:10392000032808DA8C480078401C8B49087002E0B4
:103930000020884908808948008850B1874800885D
:10394000401E864908804FF400618148FCF743FE21
:1039500004E04FF400617E48FCF73FFE10BD10B557
:1039600001217F48FDF7F1FD002863D001217C484B
:10397000FDF7FCFD7B480078401C7A49087008463A
:10398000007879490978884255DA00BF8021774864
:10399000FEF703FE0128F9D0754801787348FEF759
:1039A000A9FD00BF80217148FEF7F7FD0128F9D07D
:1039B00000BF80216D48FEF7F0FD0128F9D06C486A
:1039C00041786A48FEF796FD00BF80216748FEF700
:1039D000E4FD0128F9D000BF80216448FEF7DDFD39
:1039E0000128F9D0624881786048FEF783FD00BF66
:1039F00080215E48FEF7D1FD0128F9D000BF80216B
:103A00005A48FEF7CAFD0128F9D05948C1785748ED
:103A1000FEF770FD00BF80215448FEF7BEFD01286F
:103A2000F9D010215348FCF7D6FD00BF10215148B2
:103A3000FCF7D3FD50E000BF80214C48FEF7ADFD00
:103A40000128F9D000214948FEF754FD00BF80212C
:103A50004648FEF7A2FD0128F9D000BF8021434867
:103A6000FEF79BFD0128F9D000214048FEF742FDFA
:103A700000BF80213D48FEF790FD0128F9D000BF2E
:103A800080213A48FEF789FD0128F9D00021374806
:103A9000FEF730FD00BF80213448FEF77EFD01288F
:103AA000F9D000BF80213148FEF777FD0128F9D019
:103AB00000212E48FEF71EFD00BF80212B48FEF797
:103AC0006CFD0128F9D010212A48FCF784FD00BFC5
:103AD00010212848FCF781FD10BD10B540F225519A
:103AE0002548FDF731FF2448FDF784FEC4B2234882
:103AF000007801281AD1322018490880204821492D
:103B0000097844541F480078401CC0B21D49087011
:103B1000202801D1002008701B480078401CC0B24A
:103B200019490870202801D10020087010BD00F04C
:103B30001F02012191404209920002F1E022C2F8E5
:103B400000117047002C01403E000020460000207C
:103B5000000C0140400000204400002042000020F2
:103B600000040040580000204700002000300140C1
:103B700054000020000801400044004030000020B4
:103B80005C0000203100002033000020704700005E
:103B90000FB4044910B503AA029800F083F910BCD1
:103BA0005DF814FB280000200FB41CB5074B06AAD3
:103BB0007B4469460090059800F05BF90020694657
:103BC00000F06AF91CBC5DF814FB0000E50200007F
:103BD00070B5044685690068C10601D5302600E04D
:103BE0002026C00707D070BDD4E901213046904798
:103BF000206A401C20626D1EF6D570BD70B504466B
:103C000085690078C00707D170BDD4E90121202063
:103C10009047206A401C20626D1EF6D570BD0000E2
:103C200070B504460D4621461068AFF30080218828
:103C3000090502D50F4A7A4402E00E4A7A440E3250
:103C4000002104F1240305E000F00F060009965D51
:103C50005E54491C0028F7D120780023000704D5C2
:103C6000702D02D009B1022311322046BDE8704008
:103C700000F0A1B8000300002DE9F05F894604467A
:103C80004FF0000ADFF824B1FB44C0F820A0204622
:103C9000E168884700287DD0252806D0D4E9012195
:103CA0009047206A401C2062F1E700255F462046CD
:103CB000E16888472028064607DB312E05D2B8196F
:103CC00010F8200C08B10543F1E7A80701D525F04D
:103CD0000405C4F81CA00027C4F818A02A2E09D097
:103CE000304600F023F938B304EB8708303EC8F8BB
:103CF000186019E059F8041B204604EB8702916113
:103D0000E1688847012F064618D1E069002820DACB
:103D100025F020051DE0D8F8180000EB800006EB28
:103D200040003038C8F818002046E1688847064649
:103D300000F0FCF80028EED1012F0AD02E2E08D179
:103D40002046E16888477F1C0646022F45F0200583
:103D5000C4DBA069002803DA404245F00105A061F8
:103D6000E80701D025F01005A6B1A6F141001928F9
:103D700002D8203645F400654A4631462046256083
:103D80004D46FCF707FA60B1012807D0ED1D25F07C
:103D9000070000E007E000F1080978E705F10409F1
:103DA00075E730467AE7206ABDE8F09FD60200004A
:103DB0007047704770472DE9F0470D469946924687
:103DC000044600F124080168880604D5E06921F062
:103DD0001001216000E00120A84201DD471B00E046
:103DE0000027A1697A1902EB0900081AA06120785E
:103DF000C00602D42046FFF7EBFE002608E0D4E917
:103E000001211AF806009047206A401C761C2062A7
:103E10004E45F4DB2078C0060AD52046FFF7D8FED1
:103E200006E0D4E9012130209047206A401C20623E
:103E3000381EA7F10107F4DC07E0D4E9012118F8E6
:103E400005009047206A401C2062281EA5F101054C
:103E5000F3DC2046FFF7D2FE2078000602D50220D0
:103E6000BDE8F0870120FBE701694A1C0261087880
:103E7000704700B58FB0CDE90131002105910549AA
:103E80007944CDE9031011466846FFF7F5FE0FB0FF
:103E900000BD0000E5FFFFFF0A6802F8010B0A60A1
:103EA00070470000074B70B50D467B44FFF7E1FFFC
:103EB00004462846FEF79BFC10B14FF0FF3070BD62
:103EC000204670BD33E9FFFF754600F02BF8AE4683
:103ED00005006946534620F00700854618B020B516
:103EE000FCF75AFABDE820404FF000064FF00007FB
:103EF0004FF000084FF0000B21F00701AC46ACE892
:103F0000C009ACE8C009ACE8C009ACE8C0098D46FE
:103F1000704710B50446AFF300802046BDE810405E
:103F2000FCF74AB9004870478800002030380A285A
:103F300001D20120704700207047303132333435D0
:103F400036373839414243444546403058003031D5
:103F500032333435363738396162636465664030F0
:103F600078000400000800000000000000020001CA
:103F700000001000943F0008000000205C000000DA
:103F80005C010008F03F00085C0000208C06000087
:103F90007801000800366E010000000000000000FB
:103FA00001020304060708090000000001020304DF
:103FB00001020304060708090204060800000000C5
:103FC00000000000000000000000000000000000F1
:103FD0000000000000000000000000FFB7143B3E9E
:103FE0009CAEAF34BFBE080000000000000000001F
:0400000508000121CD
:00000001FF
